:100000000C942A000C9447000C9447000C94470071
:100010000C9447000C9447000C9447000C94470044
:100020000C9447000C9447000C9447000C94470034
:100030000C9447000C9447000C9447000C94470024
:100040000C948A0A0C9447000C9447000C944700C7
:100050000C94470011241FBECFE5D8E0DEBFCDBF12
:1000600010E0A0E6B0E0EAE4FEE102C005900D92E7
:10007000A038B107D9F710E0A0E8B0E001C01D92A8
:10008000A538B107E1F70E94D60E0C94230F0C940B
:100090000000EF92FF920F931F937B018C0120E0F1
:1000A00030E040E05FE40E94490388238CF0C801FF
:1000B000B70120E030E040E05FE40E94C1010E940F
:1000C000A9039B01AC01205030404040504806C07D
:1000D000C801B7010E94A9039B01AC01B901CA0183
:1000E0001F910F91FF90EF900895A0E0B0E0EBE733
:1000F000F0E00C94EC0EDC012B01FA019C919230A3
:1001000008F439C1EB018881823008F433C194309E
:1001100069F4843009F02FC111969C91119789815F
:10012000981709F428C1A0E6B0E025C1843009F48D
:1001300021C18230A9F4923009F01DC19A01AD01AC
:1001400088E0EA010990AE01E90109929E0181501F
:10015000C1F7E201898111969C918923818308C1AD
:10016000923009F407C112962D903C901397EB0141
:100170008A819B811496AD90BD90CD90DC901797AD
:10018000EC80FD800E811F819101281B390BB90184
:1001900037FF04C066277727621B730B6032710537
:1001A0000CF061C0121613066CF537014801062EDB
:1001B00004C096948794779467940A94D2F721E0C8
:1001C00030E040E050E004C0220F331F441F551FB1
:1001D0006A95D2F721503040404050402E213F21B7
:1001E00040235123211531054105510521F021E01E
:1001F00030E040E050E079018A01E628F72808293C
:1002000019293CC0232BD1F1260E371E350146019A
:10021000062E04C096948794779467940A94D2F734
:1002200021E030E040E050E004C0220F331F441FC3
:10023000551F6A95D2F721503040404050402A2146
:100240003B214C215D21211531054105510521F04E
:1002500021E030E040E050E059016A01A628B728CB
:10026000C828D9280BC0821593052CF01C01AA249C
:10027000BB24650103C0EE24FF24870111969C91E5
:10028000D20111968C91981709F445C0992339F041
:10029000A80197012A193B094C095D0906C0A6016E
:1002A00095012E193F09400B510B57FD08C01182D3
:1002B0003382228224833583468357831DC081E0A5
:1002C00081833382228288279927DC01821B930B4A
:1002D000A40BB50B84839583A683B7830DC0220F2F
:1002E000331F441F551F24833583468357838281E0
:1002F000938101979383828324813581468157813D
:10030000DA01C9010197A109B1098F5F9F4FAF4F72
:10031000BF4328F30BC0918333822282EA0CFB1C7B
:100320000C1D1D1DE482F5820683178383E0808304
:10033000248135814681578157FF1AC0C901AA27F8
:1003400097FDA095BA2F81709070A070B0705695EF
:10035000479537952795822B932BA42BB52B848318
:100360009583A683B7838281938101969383828349
:10037000DF0101C0D201CD01CDB7DEB7E2E10C94BF
:10038000080FA0E2B0E0E7ECF1E00C94F80E69830E
:100390007A838B839C832D833E834F835887E9E048
:1003A000EE2EF12CEC0EFD1ECE010196B7010E943F
:1003B000D2048E010F5E1F4FCE010596B8010E9438
:1003C000D2048A8991E089278A8BC701B801AE01DE
:1003D000475E5F4F0E9475000E94FD03A096E6E015
:1003E0000C94140FA0E2B0E0E8EFF1E00C94F80EEA
:1003F00069837A838B839C832D833E834F835887C5
:10040000F9E0EF2EF12CEC0EFD1ECE010196B701A6
:100410000E94D2048E010F5E1F4FCE010596B801D7
:100420000E94D204C701B801AE01475E5F4F0E942F
:1004300075000E94FD03A096E6E00C94140FA0E264
:10044000B0E0E5E2F2E00C94EC0E69837A838B83F2
:100450009C832D833E834F835887CE010196BE0136
:10046000675F7F4F0E94D204CE010596BE016F5E8A
:100470007F4F0E94D2049985923088F0898982301A
:10048000C8F0943019F4823051F404C0843029F457
:10049000923081F480E690E0C6C0923049F420E0CA
:1004A0009A858A89981321E02A87CE010996BBC0D4
:1004B000823049F420E09A858A89981321E02A8BBA
:1004C000CE014196B0C02D843E844F8458886D88FB
:1004D0007E888F88988CEE24FF248701AA24BB2471
:1004E000650140E050E060E070E0E0E0F0E0C10174
:1004F00081709070892BE9F0E60CF71C081D191D1E
:100500009A01AB012A0D3B1D4C1D5D1D80E090E062
:10051000A0E0B0E0E614F7040805190520F481E036
:1005200090E0A0E0B0E0BA01A901480F591F6A1F8E
:100530007B1FAA0CBB1CCC1CDD1C97FE08C081E0F5
:1005400090E0A0E0B0E0A82AB92ACA2ADB2A3196B6
:10055000E032F10549F0660C771C881C991C569412
:10056000479437942794C3CFFA85EA892B893C892D
:100570008B859C85280F391F2E5F3F4F17C0CA01FE
:1005800081709070892B61F016950795F794E79428
:1005900080E090E0A0E0B0E8E82AF92A0A2B1B2BC3
:1005A00076956795579547952F5F3F4F77FDE7CF36
:1005B0000CC0440F551F661F771F17FD4160EE0CDE
:1005C000FF1C001F111F21503040403090E05907A0
:1005D00090E0690790E4790760F32B8F3C8FDB0193
:1005E000CA018F779070A070B07080349105A1051A
:1005F000B10561F447FD0AC0E114F10401051105DC
:1006000029F0405C5F4F6F4F7F4F40781A8EFE1786
:1006100011F081E08A8F4D8F5E8F6F8F78A383E01A
:10062000898FCE0149960E94FD03A096E2E10C94C9
:10063000080FA8E1B0E0EFE1F3E00C94F80E698355
:100640007A838B839C832D833E834F83588789E0F5
:10065000E82EF12CEC0EFD1ECE010196B7010E9492
:10066000D2048E010F5E1F4FCE010596B8010E9485
:10067000D2048985823040F08989823028F0C70110
:10068000B8010E944A0501C08FEF6896E6E00C941D
:10069000140FA8E1B0E0EFE4F3E00C94F80E6983E6
:1006A0007A838B839C832D833E834F83588789E095
:1006B000E82EF12CEC0EFD1ECE010196B7010E9432
:1006C000D2048E010F5E1F4FCE010596B8010E9425
:1006D000D2048985823040F08989823028F0C701B0
:1006E000B8010E944A0501C08FEF6896E6E00C94BD
:1006F000140FA8E1B0E0EFE7F3E00C94F80E698383
:100700007A838B839C832D833E834F83588789E034
:10071000E82EF12CEC0EFD1ECE010196B7010E94D1
:10072000D2048E010F5E1F4FCE010596B8010E94C4
:10073000D2048985823040F08989823028F0C7014F
:10074000B8010E944A0501C081E06896E6E00C9479
:10075000140FACE0B0E0EFEAF3E00C94FC0E698318
:100760007A838B839C83CE010196BE016B5F7F4FA2
:100770000E94D2048D81823061F1823050F1843048
:1007800021F48E81882351F12EC02F81388537FDC9
:1007900020C06E812F3131051CF06623F9F023C093
:1007A0008EE190E0821B930B29853A854B855C8511
:1007B00004C056954795379527958A95D2F76623B5
:1007C000B1F050954095309521953F4F4F4F5F4F79
:1007D0000EC020E030E040E050E009C02FEF3FEFD6
:1007E0004FEF5FE704C020E030E040E050E8B9019F
:1007F000CA012C96E2E00C94180FDF92EF92FF9260
:100800000F931F93FC01E480F58006811781D1804E
:100810008081823048F480E090E0A0E1B0E0E82AF6
:10082000F92A0A2B1B2BA5C0843009F49FC0823003
:1008300021F4EE24FF24870105C0E114F104010531
:10084000110519F4E0E0F0E096C0628173819FEF3A
:10085000623879070CF05BC022E83FEF261B370BAC
:100860002A3131052CF020E030E040E050E02AC091
:10087000B801A701022E04C0769567955795479554
:100880000A94D2F781E090E0A0E0B0E004C0880FC5
:10089000991FAA1FBB1F2A95D2F70197A109B10979
:1008A0008E219F21A023B1230097A105B10521F03E
:1008B00081E090E0A0E0B0E09A01AB01282B392B59
:1008C0004A2B5B2BDA01C9018F779070A070B07052
:1008D00080349105A105B10539F427FF09C0205CDA
:1008E0003F4F4F4F5F4F04C0215C3F4F4F4F5F4F13
:1008F000E0E0F0E02030A0E03A07A0E04A07A0E402
:100900005A0710F0E1E0F0E079018A0127C0603871
:10091000710564F5FB01E158FF4FD801C7018F77DE
:100920009070A070B07080349105A105B10539F4C4
:10093000E7FE0DC080E490E0A0E0B0E004C08FE3EB
:1009400090E0A0E0B0E0E80EF91E0A1F1B1F17FFA1
:1009500005C016950795F794E794319687E01695AC
:100960000795F794E7948A95D1F705C0EE24FF2404
:100970008701EFEFF0E06E2F679566276795902F60
:100980009F77D794DD24D7948E2F8695492F462BB9
:10099000582F5D29B701CA011F910F91FF90EF9069
:1009A000DF900895FC01DB01408151812281622F9B
:1009B0006F7770E0221F2227221F9381892F880FD3
:1009C000822B282F30E0991F9927991F11969C930D
:1009D000119721153105A9F54115510561057105DD
:1009E00011F482E037C082E89FEF13969C938E93B8
:1009F00012979A01AB0167E0220F331F441F551F66
:100A00006A95D1F783E08C930DC0220F331F441FEA
:100A1000551F12968D919C911397019713969C9355
:100A20008E931297203080E0380780E0480780E4FA
:100A3000580758F314962D933D934D935C93179755
:100A400008952F3F310579F4411551056105710570
:100A500019F484E08C93089564FF03C081E08C93C3
:100A600012C01C9210C02F57304013963C932E9307
:100A7000129783E08C9387E0440F551F661F771F02
:100A80008A95D1F7706414964D935D936D937C9322
:100A9000179708951F93DC01FB019C91923008F495
:100AA00047C08081823008F443C0943051F41196DD
:100AB0001C91843099F58181682F70E0611B710968
:100AC0003FC0843021F0923031F48230B9F181811D
:100AD000882389F12DC011961C9111978230F1F075
:100AE00081811817D9F412962D913C911397828128
:100AF00093818217930794F028173907BCF0149656
:100B00008D919D910D90BC91A02D248135814681C0
:100B10005781281739074A075B0718F4112341F05A
:100B20000AC082179307A407B50740F4112319F0F0
:100B300061E070E005C06FEF7FEF02C060E070E041
:100B4000CB011F910895DF93CF93CDB7DEB783E03C
:100B500060E040E00E94570683E061E041E00E94CF
:100B60005706CF91DF910895DF93CF930F92CDB7C2
:100B7000DEB7198289818068898389818F7B898327
:100B800089818F7E898389818F7D89838981877F10
:100B90008983AAE2B0E0EAE2F0E080818B7F8C9367
:100BA000898182608983898184608983E0E4F0E0BF
:100BB00089818083E9E2F0E083E38083AAE2B0E008
:100BC000EAE2F0E0808180618C93AAE2B0E0EAE2A0
:100BD000F0E0808188608C930F90CF91DF91089531
:100BE000DF93CF930F92CDB7DEB78983EBE2F0E0CE
:100BF0008081829586958770882F90E081709070B3
:100C00000097A1F3ECE2F0E0898180830F90CF910F
:100C1000DF910895DF93CF93CDB7DEB7EBE2F0E03D
:100C200080818823DCF7ECE2F0E08081CF91DF91D6
:100C30000895DF93CF93CDB7DEB7EAE3F0E080EF1E
:100C40008083E7E3F0E01082E4E3F0E01082E1E388
:100C5000F0E080EF8083EBE3F0E08FEF8083E8E368
:100C6000F0E01082E5E3F0E01082E2E3F0E01082D1
:100C7000CF91DF910895DF93CF93CDB7DEB7AFE586
:100C8000B0E0EFE5F0E0808180688C93CF91DF9158
:100C90000895DF93CF93CDB7DEB7AFE5B0E0EFE5D2
:100CA000F0E080818F778C93CF91DF910895DF936F
:100CB000CF93CDB7DEB728970FB6F894DEBF0FBE3F
:100CC000CDBF8A836B834C8319828B81883008F077
:100CD000F3C08C81882309F077C08A81282F30E007
:100CE00038872F838F8198858130910559F12F8125
:100CF0003885223031052CF48F819885009769F072
:100D000060C02F8138852230310589F18F81988527
:100D10008330910509F440C054C0AAE3B0E0EAE38F
:100D2000F0E08081482F8B81282F30E081E090E037
:100D3000022E02C0880F991F0A94E2F7809584233F
:100D40008C93BAC0A7E3B0E0E7E3F0E08081482FDE
:100D50008B81282F30E081E090E0022E02C0880FC6
:100D6000991F0A94E2F7809584238C93A5C0A4E38D
:100D7000B0E0E4E3F0E08081482F8B81282F30E061
:100D800081E090E0022E02C0880F991F0A94E2F7DA
:100D9000809584238C9390C0A1E3B0E0E1E3F0E080
:100DA0008081482F8B81282F30E081E090E0022E57
:100DB00002C0880F991F0A94E2F7809584238C93D0
:100DC0007BC081E0898378C08C81813009F072C05A
:100DD0008A81282F30E03E832D838D819E81813052
:100DE000910549F12D813E81223031052CF48D8110
:100DF0009E81009761F05BC02D813E8122303105DC
:100E000071F18D819E8183309105E9F150C0AAE393
:100E1000B0E0EAE3F0E08081482F8B81282F30E0BA
:100E200081E090E0022E02C0880F991F0A94E2F739
:100E3000842B8C9341C0A7E3B0E0E7E3F0E080812E
:100E4000482F8B81282F30E081E090E0022E02C0F5
:100E5000880F991F0A94E2F7842B8C932DC0A4E38A
:100E6000B0E0E4E3F0E08081482F8B81282F30E070
:100E700081E090E0022E02C0880F991F0A94E2F7E9
:100E8000842B8C9319C0A1E3B0E0E1E3F0E0808112
:100E9000482F8B81282F30E081E090E0022E02C0A5
:100EA000880F991F0A94E2F7842B8C9305C081E088
:100EB000898302C081E089831982898128960FB6CF
:100EC000F894DEBF0FBECDBFCF91DF910895DF93C1
:100ED000CF9300D000D00F92CDB7DEB78A836B835B
:100EE00019828A81282F30E03D832C838C819D815B
:100EF00081309105D1F02C813D81223031052CF4D7
:100F00008C819D81009761F01EC02C813D81223033
:100F1000310581F08C819D818330910581F013C072
:100F2000EAE3F0E08B8180830EC0E7E3F0E08B81A1
:100F3000808309C0E4E3F0E08B81808304C0E1E3B7
:100F4000F0E08B81808389810F900F900F900F903C
:100F50000F90CF91DF910895DF93CF93CDB7DEB798
:100F600028970FB6F894DEBF0FBECDBF8A836B8380
:100F70004C8319828B81883008F0F0C08C818823E3
:100F800009F077C08A81282F30E038872F838F813E
:100F900098858130910559F12F81388522303105AE
:100FA0002CF48F819885009769F060C02F81388577
:100FB0002230310589F18F8198858330910509F4BC
:100FC00040C054C0ABE3B0E0EBE3F0E08081482FD9
:100FD0008B81282F30E081E090E0022E02C0880F44
:100FE000991F0A94E2F7809584238C93B7C0A8E3F5
:100FF000B0E0E8E3F0E08081482F8B81282F30E0DB
:1010000081E090E0022E02C0880F991F0A94E2F757
:10101000809584238C93A2C0A5E3B0E0E5E3F0E0E3
:101020008081482F8B81282F30E081E090E0022ED4
:1010300002C0880F991F0A94E2F7809584238C934D
:101040008DC0A2E3B0E0E2E3F0E08081482F8B8125
:10105000282F30E081E090E0022E02C0880F991F17
:101060000A94E2F7809584238C9378C081E0898389
:1010700075C08C81813009F071C08A81282F30E0E1
:101080003E832D838D819E818130910549F12D8193
:101090003E81223031052CF48D819E81009761F0D4
:1010A0005BC02D813E812230310571F18D819E81A1
:1010B00083309105E9F150C0ABE3B0E0EBE3F0E041
:1010C0008081482F8B81282F30E081E090E0022E34
:1010D00002C0880F991F0A94E2F7842B8C933EC0BC
:1010E000A8E3B0E0E8E3F0E08081482F8B81282F6F
:1010F00030E081E090E0022E02C0880F991F0A9430
:10110000E2F7842B8C932AC0A5E3B0E0E5E3F0E09E
:101110008081482F8B81282F30E081E090E0022EE3
:1011200002C0880F991F0A94E2F7842B8C9316C093
:10113000A2E3B0E0E2E3F0E08081482F8B81282F2A
:1011400030E081E090E0022E02C0880F991F0A94DF
:10115000E2F7842B8C9302C081E0898389812896F1
:101160000FB6F894DEBF0FBECDBFCF91DF910895CB
:10117000DF93CF9300D000D00F92CDB7DEB78A8334
:101180006B8319828A81282F30E03D832C838C81E8
:101190009D8181309105D1F02C813D812230310536
:1011A0002CF48C819D81009761F01EC02C813D81C3
:1011B0002230310581F08C819D818330910581F051
:1011C00013C0EBE3F0E08B8180830EC0E8E3F0E036
:1011D0008B81808309C0E5E3F0E08B81808304C0CC
:1011E000E2E3F0E08B81808389810F900F900F9074
:1011F0000F900F90CF91DF910895DF93CF9300D0A0
:1012000000D00F92CDB7DEB78A836B8319828A81B3
:10121000843008F06BC08B81883008F067C08A8109
:10122000282F30E03D832C834C815D814130510576
:1012300041F18C819D818230910534F42C813D8176
:101240002115310561F052C04C815D81423051055C
:1012500051F18C819D8183309105B9F147C0E9E35B
:10126000F0E08081282F30E08B81882F90E0A90169
:1012700002C0559547958A95E2F7CA018170898326
:1012800035C0E6E3F0E08081282F30E08B81882FA5
:1012900090E0A90102C0559547958A95E2F7CA01E9
:1012A0008170898323C0E3E3F0E08081282F30E060
:1012B0008B81882F90E0A90102C0559547958A95AA
:1012C000E2F7CA018170898311C0E0E3F0E0808118
:1012D000282F30E08B81882F90E0A90102C055951E
:1012E00047958A95E2F7CA018170898389810F90B9
:1012F0000F900F900F900F90CF91DF910895DF9393
:10130000CF93CDB7DEB7A7E2B0E0E7E2F0E08081AF
:1013100080648C93A7E2B0E0E7E2F0E080818F7711
:101320008C93A7E2B0E0E7E2F0E0808180628C93EA
:10133000A6E2B0E0E6E2F0E0808184608C93A6E271
:10134000B0E0E6E2F0E0808182608C93A6E2B0E05B
:10135000E6E2F0E0808181608C93A6E2B0E0E6E214
:10136000F0E0808180688C93CF91DF910895DF93C6
:10137000CF93CDB7DEB728970FB6F894DEBF0FBE78
:10138000CDBF8E8378876F831A821B821C821D8259
:10139000198280918400882309F05BC081E08093EA
:1013A0008400A7E2B0E0E7E2F0E08081807E8C93E9
:1013B000A7E2B0E0E7E2F0E090818E81892B8C9388
:1013C000A6E2B0E0E6E2F0E0808180648C930BC09E
:1013D0008A819B81AC81BD810196A11DB11D8A834B
:1013E0009B83AC83BD83E6E2F0E0808182958F70C1
:1013F000882F90E081709070009761F48A819B81C2
:10140000AC81BD81803523EC920720E0A20720E06B
:10141000B207F1F68A819B81AC81BD81803523ECD6
:10142000920720E0A20720E0B20719F481E0898347
:1014300012C0A6E2B0E0E6E2F0E0808180618C9329
:10144000E5E2F0E08081EF81F885808310928400EE
:1014500002C083E08983898128960FB6F894DEBFA5
:101460000FBECDBFCF91DF910895DF93CF9300D012
:1014700000D000D0CDB7DEB78A837C836B835E83D8
:101480004D831982809184008823C1F58B819C81D2
:10149000009721F08D819E81009719F482E0898365
:1014A0002FC081E0809384008B819C819093810088
:1014B000809380008D819E81909383008093820031
:1014C000A7E2B0E0E7E2F0E08081807E8C93A7E2C3
:1014D000B0E0E7E2F0E090818A81892B8C93A6E26C
:1014E000B0E0E6E2F0E0808180648C93A6E2B0E0B8
:1014F000E6E2F0E0808188608C9302C083E089831B
:10150000898126960FB6F894DEBF0FBECDBFCF916E
:10151000DF9108951F920F920FB60F9211242F930F
:101520003F934F935F936F937F938F939F93AF936B
:10153000BF93EF93FF93DF93CF93CDB7DEB7A09127
:101540008000B0918100E5E2F0E080818C93109200
:101550008400E0918200F09183000995A6E2B0E05A
:10156000E6E2F0E08081877F8C93CF91DF91FF915D
:10157000EF91BF91AF919F918F917F916F915F910B
:101580004F913F912F910F900FBE0F901F90189584
:10159000DF93CF93CDB7DEB72F970FB6F894DEBFAA
:1015A0000FBECDBF8F8782E06FEF0E94670782E09A
:1015B00060E040E00E94AC0782E061E040E00E9411
:1015C000AC0780E06FEF0E9467078F85282F30E01F
:1015D00080E090E0B9010E94B80882E062E041E05A
:1015E0000E94AC0780E090E0A0E0B0E48B879C878D
:1015F000AD87BE876B857C858D859E8520E030E03C
:101600004AEF54E40E941F02DC01CB018F839887CC
:10161000A987BA876F81788589859A8520E030E02F
:1016200040E85FE30E94790388232CF481E090E096
:101630009E838D833FC06F81788589859A8520E060
:101640003FEF4FE757E40E94190318164CF56B85DE
:101650007C858D859E8520E030E040E251E40E944B
:101660001F02DC01CB01BC01CD010E944900DC015D
:10167000CB019E838D830FC088EC90E09C838B838D
:101680008B819C810197F1F79C838B838D819E8157
:1016900001979E838D838D819E81009769F714C089
:1016A0006F81788589859A850E944900DC01CB018C
:1016B0009E838D838D819E819A83898389819A817E
:1016C0000197F1F79A83898382E062E040E00E940B
:1016D000AC072F960FB6F894DEBF0FBECDBFCF91EB
:1016E000DF910895DF93CF93CDB7DEB72F970FB675
:1016F000F894DEBF0FBECDBF8F8782E06FEF0E94F0
:10170000670782E060E041E00E94AC0782E061E0B0
:1017100040E00E94AC0782E06FEF0E9467078F8570
:10172000282F30E080E090E0B9010E94B80882E004
:1017300062E041E00E94AC0780E090E0A0E0B0E40D
:101740008B879C87AD87BE876B857C858D859E85C5
:1017500020E030E04AEF54E40E941F02DC01CB019C
:101760008F839887A987BA876F81788589859A85BD
:1017700020E030E040E85FE30E94790388232CF406
:1017800081E090E09E838D833FC06F81788589855D
:101790009A8520E03FEF4FE757E40E94190318169F
:1017A0004CF56B857C858D859E8520E030E040E2A0
:1017B00051E40E941F02DC01CB01BC01CD010E945B
:1017C0004900DC01CB019E838D830FC088EC90E043
:1017D0009C838B838B819C810197F1F79C838B8306
:1017E0008D819E8101979E838D838D819E8100973F
:1017F00069F714C06F81788589859A850E944900B0
:10180000DC01CB019E838D838D819E819A838983A8
:1018100089819A810197F1F79A83898382E062E056
:1018200040E00E94AC072F960FB6F894DEBF0FBEC3
:10183000CDBFCF91DF910895DF93CF93CDB7DEB7C2
:101840002E970FB6F894DEBF0FBECDBF80E090E0BC
:10185000A0E2B2E48B879C87AD87BE876B857C85D1
:101860008D859E8520E030E04AEF54E40E941F02FF
:10187000DC01CB018F839887A987BA876F81788530
:1018800089859A8520E030E040E85FE30E94790393
:1018900088232CF481E090E09E838D833FC06F818C
:1018A000788589859A8520E03FEF4FE757E40E94CD
:1018B000190318164CF56B857C858D859E8520E077
:1018C00030E040E251E40E941F02DC01CB01BC0188
:1018D000CD010E944900DC01CB019E838D830FC0A6
:1018E00088EC90E09C838B838B819C810197F1F73E
:1018F0009C838B838D819E8101979E838D838D81B7
:101900009E81009769F714C06F81788589859A85D3
:101910000E944900DC01CB019E838D838D819E81D5
:101920009A83898389819A810197F1F79A838983C0
:1019300088E30E94C80A8CE00E94C80A81E00E94E5
:10194000C80A2E960FB6F894DEBF0FBECDBFCF915A
:10195000DF910895DF93CF9300D00F92CDB7DEB71C
:101960009B838A8319820EC08981282F30E08A8167
:101970009B81FC01E20FF31F80810E94720B898121
:101980008F5F89838981282F30E08A819B81FC01C8
:10199000E20FF31F8081882339F70F900F900F908B
:1019A000CF91DF910895DF93CF9300D00F92CDB701
:1019B000DEB79B838A8319820FC08981282F30E08C
:1019C0008A819B81FC01E20FF31F8081805D0E9470
:1019D000720B89818F5F89838981282F30E08A810A
:1019E0009B81FC01E20FF31F8081882331F70F9068
:1019F0000F900F90CF91DF910895DF93CF930F92C7
:101A0000CDB7DEB781E0898389810E94C80A0F9033
:101A1000CF91DF910895DF93CF9300D00F92CDB790
:101A2000DEB78A836B838A81882319F48B8189834B
:101A300006C08A81813019F48B81805C8983898119
:101A400080580E94C80A0F900F900F90CF91DF919D
:101A50000895DF93CF93CDB7DEB727970FB6F894ED
:101A6000DEBF0FBECDBF9C838B836D834E832F83E0
:101A700019828D81882F90E0880F991F880F991FF8
:101A8000880F991F89838981805C0E94C80A1A8205
:101A90000EC08A81282F30E08B819C81FC01E20FEF
:101AA000F31F80810E94720B8A818F5F8A838A81F3
:101AB000883078F38E816F810E940B0D8D810E949A
:101AC000720B27960FB6F894DEBF0FBECDBFCF9135
:101AD000DF910895DF93CF93CDB7DEB780E060E06C
:101AE00040E00E94570680E061E040E00E94570617
:101AF00080E062E040E00E94570680E063E040E062
:101B00000E94570680E064E041E00E94570680E0B2
:101B100065E041E00E94570680E066E041E00E94F7
:101B2000570680E067E041E00E94570680E060E0F1
:101B300041E00E94AC0780E061E041E00E94AC0718
:101B400080E062E041E00E94AC0780E063E041E0B9
:101B50000E94AC0780E064E041E00E94AC0780E0B6
:101B600065E041E00E94AC0780E066E041E00E9451
:101B7000AC0780E067E041E00E94AC07CF91DF91C5
:101B80000895DF93CF93CDB7DEB761970FB6F89482
:101B9000DEBF0FBECDBF198A188AD7C08889882FAB
:101BA00090E0FC01E459FF4F908180E0692F40E014
:101BB0000E94AC071F86B6C08F85882F90E0FC017D
:101BC000E859FF4F908180E0692F0E94FD0888232B
:101BD00009F0A5C080E090E0A8E4B2E48B879C8780
:101BE000AD87BE876B857C858D859E8520E030E046
:101BF0004AEF54E40E941F02DC01CB018F839887D7
:101C0000A987BA876F81788589859A8520E030E039
:101C100040E85FE30E94790388232CF481E090E0A0
:101C20009E838D833FC06F81788589859A8520E06A
:101C30003FEF4FE757E40E94190318164CF56B85E8
:101C40007C858D859E8520E030E040E251E40E9455
:101C50001F02DC01CB01BC01CD010E944900DC0167
:101C6000CB019E838D830FC088EC90E09C838B8397
:101C70008B819C810197F1F79C838B838D819E8161
:101C800001979E838D838D819E81009769F714C093
:101C90006F81788589859A850E944900DC01CB0196
:101CA0009E838D838D819E819A83898389819A8188
:101CB0000197F1F79A8389838F85482F50E08889AF
:101CC000282F30E0CA01880F991F880F991F820FB3
:101CD000931FFC01E059FF4F8081898B12C08F85D3
:101CE000482F50E08889282F30E0CA01880F991FBB
:101CF000880F991F820F931FFC01E059FF4F8081CD
:101D0000898B8F85882F90E0FC01E859FF4F9081E7
:101D100080E0692F0E94FD08882309F307C08F85A2
:101D20008F5F8F878F85843008F446CF8889882F0E
:101D300090E0FC01E459FF4F908180E0692F41E081
:101D40000E94AC0788898F5F888B8889843008F46B
:101D500025CF898961960FB6F894DEBF0FBECDBF3F
:101D6000CF91DF910895DF93CF93CDB7DEB7CF91B9
:101D7000DF910895DF93CF93CDB7DEB7CF91DF9199
:101D80000895DF93CF93CDB7DEB7CF91DF9108955C
:101D9000DF93CF93CDB7DEB7CF91DF910895DF9377
:101DA000CF93CDB7DEB7CF91DF910895DF93CF9377
:101DB0000F92CDB7DEB719820E946A0D0E94A3056B
:101DC0000E94B4050E94C10D898389818823D1F3C3
:101DD00089810E94F005F6CF2F923F924F925F9239
:101DE0006F927F928F929F92AF92BF92CF92DF922B
:101DF000EF92FF920F931F93CF93DF93CDB7DEB790
:101E0000CA1BDB0B0FB6F894DEBF0FBECDBF099423
:101E10002A88398848885F846E847D848C849B847A
:101E2000AA84B984C884DF80EE80FD800C811B8188
:101E3000AA81B981CE0FD11D0FB6F894DEBF0FBEB7
:0A1E4000CDBFED010895F894FFCF27
:101E4A00000000000000000000010203040506076C
:101E5A003738392F3435362A3132332D41303D2B3C
:00000001FF
